{
  "_format": "hh-sol-artifact-1",
  "contractName": "CrossDex",
  "sourceName": "contracts/CrossDex.sol",
  "abi": [
    {
      "inputs": [
        {
          "components": [
            {
              "internalType": "address",
              "name": "priceFeed",
              "type": "address"
            },
            {
              "internalType": "string",
              "name": "symbol",
              "type": "string"
            }
          ],
          "internalType": "struct CrossDex.TokenData[]",
          "name": "_tokenDatas",
          "type": "tuple[]"
        },
        {
          "internalType": "address[]",
          "name": "_tokens",
          "type": "address[]"
        }
      ],
      "stateMutability": "nonpayable",
      "type": "constructor"
    },
    {
      "inputs": [
        {
          "internalType": "address",
          "name": "target",
          "type": "address"
        }
      ],
      "name": "AddressEmptyCode",
      "type": "error"
    },
    {
      "inputs": [
        {
          "internalType": "address",
          "name": "account",
          "type": "address"
        }
      ],
      "name": "AddressInsufficientBalance",
      "type": "error"
    },
    {
      "inputs": [],
      "name": "AmountOutOfBounds",
      "type": "error"
    },
    {
      "inputs": [],
      "name": "FailedInnerCall",
      "type": "error"
    },
    {
      "inputs": [
        {
          "internalType": "uint256",
          "name": "_value",
          "type": "uint256"
        }
      ],
      "name": "NotEnoughBalance",
      "type": "error"
    },
    {
      "inputs": [],
      "name": "PriceFeedAndTokensLengthNotEqual",
      "type": "error"
    },
    {
      "inputs": [],
      "name": "ReentrancyGuardReentrantCall",
      "type": "error"
    },
    {
      "inputs": [
        {
          "internalType": "address",
          "name": "token",
          "type": "address"
        }
      ],
      "name": "SafeERC20FailedOperation",
      "type": "error"
    },
    {
      "inputs": [
        {
          "internalType": "address",
          "name": "_baseToken",
          "type": "address"
        },
        {
          "internalType": "address",
          "name": "_quoteToken",
          "type": "address"
        }
      ],
      "name": "TokenNotSwappable",
      "type": "error"
    },
    {
      "anonymous": false,
      "inputs": [
        {
          "indexed": true,
          "internalType": "address",
          "name": "from",
          "type": "address"
        },
        {
          "indexed": true,
          "internalType": "address",
          "name": "to",
          "type": "address"
        }
      ],
      "name": "OwnershipTransferRequested",
      "type": "event"
    },
    {
      "anonymous": false,
      "inputs": [
        {
          "indexed": true,
          "internalType": "address",
          "name": "from",
          "type": "address"
        },
        {
          "indexed": true,
          "internalType": "address",
          "name": "to",
          "type": "address"
        }
      ],
      "name": "OwnershipTransferred",
      "type": "event"
    },
    {
      "anonymous": false,
      "inputs": [
        {
          "indexed": true,
          "internalType": "string",
          "name": "_from",
          "type": "string"
        },
        {
          "indexed": true,
          "internalType": "string",
          "name": "_to",
          "type": "string"
        },
        {
          "indexed": false,
          "internalType": "uint256",
          "name": "_amount",
          "type": "uint256"
        }
      ],
      "name": "TokenSwapped",
      "type": "event"
    },
    {
      "inputs": [],
      "name": "acceptOwnership",
      "outputs": [],
      "stateMutability": "nonpayable",
      "type": "function"
    },
    {
      "inputs": [
        {
          "internalType": "address",
          "name": "_token",
          "type": "address"
        }
      ],
      "name": "depositWeth",
      "outputs": [],
      "stateMutability": "payable",
      "type": "function"
    },
    {
      "inputs": [
        {
          "internalType": "address",
          "name": "_token",
          "type": "address"
        },
        {
          "internalType": "uint256",
          "name": "_amount",
          "type": "uint256"
        }
      ],
      "name": "getUsdValue",
      "outputs": [
        {
          "internalType": "uint256",
          "name": "",
          "type": "uint256"
        }
      ],
      "stateMutability": "view",
      "type": "function"
    },
    {
      "inputs": [],
      "name": "owner",
      "outputs": [
        {
          "internalType": "address",
          "name": "",
          "type": "address"
        }
      ],
      "stateMutability": "view",
      "type": "function"
    },
    {
      "inputs": [
        {
          "internalType": "address",
          "name": "",
          "type": "address"
        }
      ],
      "name": "s_tokenDatas",
      "outputs": [
        {
          "internalType": "address",
          "name": "priceFeed",
          "type": "address"
        },
        {
          "internalType": "string",
          "name": "symbol",
          "type": "string"
        }
      ],
      "stateMutability": "view",
      "type": "function"
    },
    {
      "inputs": [
        {
          "internalType": "uint8",
          "name": "_percent",
          "type": "uint8"
        }
      ],
      "name": "setQuotePercent",
      "outputs": [],
      "stateMutability": "nonpayable",
      "type": "function"
    },
    {
      "inputs": [
        {
          "internalType": "address",
          "name": "_token",
          "type": "address"
        },
        {
          "components": [
            {
              "internalType": "address",
              "name": "priceFeed",
              "type": "address"
            },
            {
              "internalType": "string",
              "name": "symbol",
              "type": "string"
            }
          ],
          "internalType": "struct CrossDex.TokenData",
          "name": "_tokenData",
          "type": "tuple"
        }
      ],
      "name": "setTokenData",
      "outputs": [],
      "stateMutability": "nonpayable",
      "type": "function"
    },
    {
      "inputs": [
        {
          "internalType": "address",
          "name": "_baseToken",
          "type": "address"
        },
        {
          "internalType": "address",
          "name": "_quoteToken",
          "type": "address"
        },
        {
          "internalType": "uint256",
          "name": "_amount",
          "type": "uint256"
        }
      ],
      "name": "swap",
      "outputs": [
        {
          "internalType": "bool",
          "name": "success",
          "type": "bool"
        },
        {
          "internalType": "uint256",
          "name": "_value",
          "type": "uint256"
        }
      ],
      "stateMutability": "payable",
      "type": "function"
    },
    {
      "inputs": [
        {
          "internalType": "address",
          "name": "to",
          "type": "address"
        }
      ],
      "name": "transferOwnership",
      "outputs": [],
      "stateMutability": "nonpayable",
      "type": "function"
    },
    {
      "inputs": [
        {
          "internalType": "address",
          "name": "_token",
          "type": "address"
        }
      ],
      "name": "withdrawToken",
      "outputs": [
        {
          "internalType": "bool",
          "name": "_success",
          "type": "bool"
        }
      ],
      "stateMutability": "nonpayable",
      "type": "function"
    },
    {
      "stateMutability": "payable",
      "type": "receive"
    }
  ],
  "bytecode": "0x60806040526032600260146101000a81548160ff021916908360ff1602179055503480156200002d57600080fd5b5060405162002f6038038062002f60833981810160405281019062000053919062000868565b338060006001600081905550600073ffffffffffffffffffffffffffffffffffffffff168273ffffffffffffffffffffffffffffffffffffffff1603620000d1576040517f08c379a0000000000000000000000000000000000000000000000000000000008152600401620000c8906200094e565b60405180910390fd5b81600160006101000a81548173ffffffffffffffffffffffffffffffffffffffff021916908373ffffffffffffffffffffffffffffffffffffffff160217905550600073ffffffffffffffffffffffffffffffffffffffff168173ffffffffffffffffffffffffffffffffffffffff161462000159576200015881620002eb60201b60201c565b5b505050805182511462000198576040517f88abd6da00000000000000000000000000000000000000000000000000000000815260040160405180910390fd5b60005b8251811015620002e257600073ffffffffffffffffffffffffffffffffffffffff16828281518110620001d357620001d262000970565b5b602002602001015173ffffffffffffffffffffffffffffffffffffffff1614620002d4578281815181106200020d576200020c62000970565b5b6020026020010151600360008484815181106200022f576200022e62000970565b5b602002602001015173ffffffffffffffffffffffffffffffffffffffff1673ffffffffffffffffffffffffffffffffffffffff16815260200190815260200160002060008201518160000160006101000a81548173ffffffffffffffffffffffffffffffffffffffff021916908373ffffffffffffffffffffffffffffffffffffffff1602179055506020820151816001019081620002cf919062000bea565b509050505b80806001019150506200019b565b50505062000d43565b3373ffffffffffffffffffffffffffffffffffffffff168173ffffffffffffffffffffffffffffffffffffffff16036200035c576040517f08c379a0000000000000000000000000000000000000000000000000000000008152600401620003539062000d21565b60405180910390fd5b80600260006101000a81548173ffffffffffffffffffffffffffffffffffffffff021916908373ffffffffffffffffffffffffffffffffffffffff1602179055508073ffffffffffffffffffffffffffffffffffffffff16600160009054906101000a900473ffffffffffffffffffffffffffffffffffffffff1673ffffffffffffffffffffffffffffffffffffffff167fed8889f560326eb138920d842192f0eb3dd22b4f139c87a2c57538e05bae127860405160405180910390a350565b6000604051905090565b600080fd5b600080fd5b600080fd5b6000601f19601f8301169050919050565b7f4e487b7100000000000000000000000000000000000000000000000000000000600052604160045260246000fd5b620004808262000435565b810181811067ffffffffffffffff82111715620004a257620004a162000446565b5b80604052505050565b6000620004b76200041c565b9050620004c5828262000475565b919050565b600067ffffffffffffffff821115620004e857620004e762000446565b5b602082029050602081019050919050565b600080fd5b600080fd5b600080fd5b600073ffffffffffffffffffffffffffffffffffffffff82169050919050565b6000620005358262000508565b9050919050565b620005478162000528565b81146200055357600080fd5b50565b60008151905062000567816200053c565b92915050565b600080fd5b600067ffffffffffffffff82111562000590576200058f62000446565b5b6200059b8262000435565b9050602081019050919050565b60005b83811015620005c8578082015181840152602081019050620005ab565b60008484015250505050565b6000620005eb620005e58462000572565b620004ab565b9050828152602081018484840111156200060a57620006096200056d565b5b62000617848285620005a8565b509392505050565b600082601f83011262000637576200063662000430565b5b815162000649848260208601620005d4565b91505092915050565b6000604082840312156200066b576200066a620004fe565b5b620006776040620004ab565b90506000620006898482850162000556565b600083015250602082015167ffffffffffffffff811115620006b057620006af62000503565b5b620006be848285016200061f565b60208301525092915050565b6000620006e1620006db84620004ca565b620004ab565b90508083825260208201905060208402830185811115620007075762000706620004f9565b5b835b818110156200075557805167ffffffffffffffff81111562000730576200072f62000430565b5b8086016200073f898262000652565b8552602085019450505060208101905062000709565b5050509392505050565b600082601f83011262000777576200077662000430565b5b815162000789848260208601620006ca565b91505092915050565b600067ffffffffffffffff821115620007b057620007af62000446565b5b602082029050602081019050919050565b6000620007d8620007d28462000792565b620004ab565b90508083825260208201905060208402830185811115620007fe57620007fd620004f9565b5b835b818110156200082b578062000816888262000556565b84526020840193505060208101905062000800565b5050509392505050565b600082601f8301126200084d576200084c62000430565b5b81516200085f848260208601620007c1565b91505092915050565b6000806040838503121562000882576200088162000426565b5b600083015167ffffffffffffffff811115620008a357620008a26200042b565b5b620008b1858286016200075f565b925050602083015167ffffffffffffffff811115620008d557620008d46200042b565b5b620008e38582860162000835565b9150509250929050565b600082825260208201905092915050565b7f43616e6e6f7420736574206f776e657220746f207a65726f0000000000000000600082015250565b600062000936601883620008ed565b91506200094382620008fe565b602082019050919050565b60006020820190508181036000830152620009698162000927565b9050919050565b7f4e487b7100000000000000000000000000000000000000000000000000000000600052603260045260246000fd5b600081519050919050565b7f4e487b7100000000000000000000000000000000000000000000000000000000600052602260045260246000fd5b60006002820490506001821680620009f257607f821691505b60208210810362000a085762000a07620009aa565b5b50919050565b60008190508160005260206000209050919050565b60006020601f8301049050919050565b600082821b905092915050565b60006008830262000a727fffffffffffffffffffffffffffffffffffffffffffffffffffffffffffffffff8262000a33565b62000a7e868362000a33565b95508019841693508086168417925050509392505050565b6000819050919050565b6000819050919050565b600062000acb62000ac562000abf8462000a96565b62000aa0565b62000a96565b9050919050565b6000819050919050565b62000ae78362000aaa565b62000aff62000af68262000ad2565b84845462000a40565b825550505050565b600090565b62000b1662000b07565b62000b2381848462000adc565b505050565b5b8181101562000b4b5762000b3f60008262000b0c565b60018101905062000b29565b5050565b601f82111562000b9a5762000b648162000a0e565b62000b6f8462000a23565b8101602085101562000b7f578190505b62000b9762000b8e8562000a23565b83018262000b28565b50505b505050565b600082821c905092915050565b600062000bbf6000198460080262000b9f565b1980831691505092915050565b600062000bda838362000bac565b9150826002028217905092915050565b62000bf5826200099f565b67ffffffffffffffff81111562000c115762000c1062000446565b5b62000c1d8254620009d9565b62000c2a82828562000b4f565b600060209050601f83116001811462000c62576000841562000c4d578287015190505b62000c59858262000bcc565b86555062000cc9565b601f19841662000c728662000a0e565b60005b8281101562000c9c5784890151825560018201915060208501945060208101905062000c75565b8683101562000cbc578489015162000cb8601f89168262000bac565b8355505b6001600288020188555050505b505050505050565b7f43616e6e6f74207472616e7366657220746f2073656c66000000000000000000600082015250565b600062000d09601783620008ed565b915062000d168262000cd1565b602082019050919050565b6000602082019050818103600083015262000d3c8162000cfa565b9050919050565b61220d8062000d536000396000f3fe6080604052600436106100955760003560e01c80638da5cb5b116100595780638da5cb5b146101785780639df6f8a4146101a3578063c660d112146101cc578063df791e5014610209578063f2fde38b1461023a5761009c565b80630b43b2fb146100a15780633fb82b68146100df578063413af5f3146100fb57806379ba509714610124578063894760691461013b5761009c565b3661009c57005b600080fd5b3480156100ad57600080fd5b506100c860048036038101906100c391906114e1565b610263565b6040516100d69291906115ad565b60405180910390f35b6100f960048036038101906100f491906114e1565b61032f565b005b34801561010757600080fd5b50610122600480360381019061011d9190611601565b610393565b005b34801561013057600080fd5b506101396103ee565b005b34801561014757600080fd5b50610162600480360381019061015d91906114e1565b610585565b60405161016f9190611678565b60405180910390f35b34801561018457600080fd5b5061018d610739565b60405161019a9190611693565b60405180910390f35b3480156101af57600080fd5b506101ca60048036038101906101c591906116e7565b610763565b005b3480156101d857600080fd5b506101f360048036038101906101ee919061174a565b610789565b6040516102009190611799565b60405180910390f35b610223600480360381019061021e91906117b4565b6108a1565b604051610231929190611807565b60405180910390f35b34801561024657600080fd5b50610261600480360381019061025c91906114e1565b610ddc565b005b60036020528060005260406000206000915090508060000160009054906101000a900473ffffffffffffffffffffffffffffffffffffffff16908060010180546102ac9061185f565b80601f01602080910402602001604051908101604052809291908181526020018280546102d89061185f565b80156103255780601f106102fa57610100808354040283529160200191610325565b820191906000526020600020905b81548152906001019060200180831161030857829003601f168201915b5050505050905082565b8073ffffffffffffffffffffffffffffffffffffffff1663d0e30db0346040518263ffffffff1660e01b81526004016000604051808303818588803b15801561037757600080fd5b505af115801561038b573d6000803e3d6000fd5b505050505050565b61039b610df0565b80600360008473ffffffffffffffffffffffffffffffffffffffff1673ffffffffffffffffffffffffffffffffffffffff16815260200190815260200160002081816103e79190611cda565b9050505050565b600260009054906101000a900473ffffffffffffffffffffffffffffffffffffffff1673ffffffffffffffffffffffffffffffffffffffff163373ffffffffffffffffffffffffffffffffffffffff161461047e576040517f08c379a000000000000000000000000000000000000000000000000000000000815260040161047590611d34565b60405180910390fd5b6000600160009054906101000a900473ffffffffffffffffffffffffffffffffffffffff16905033600160006101000a81548173ffffffffffffffffffffffffffffffffffffffff021916908373ffffffffffffffffffffffffffffffffffffffff1602179055506000600260006101000a81548173ffffffffffffffffffffffffffffffffffffffff021916908373ffffffffffffffffffffffffffffffffffffffff1602179055503373ffffffffffffffffffffffffffffffffffffffff168173ffffffffffffffffffffffffffffffffffffffff167f8be0079c531659141344cd1fd0a4f28419497f9722a3daafe3b4186f6b6457e060405160405180910390a350565b600061058f610df0565b600173ffffffffffffffffffffffffffffffffffffffff168273ffffffffffffffffffffffffffffffffffffffff1603610634573373ffffffffffffffffffffffffffffffffffffffff16476040516105e790611d85565b60006040518083038185875af1925050503d8060008114610624576040519150601f19603f3d011682016040523d82523d6000602084013e610629565b606091505b505080915050610734565b60008273ffffffffffffffffffffffffffffffffffffffff166370a08231306040518263ffffffff1660e01b815260040161066f9190611693565b602060405180830381865afa15801561068c573d6000803e3d6000fd5b505050506040513d601f19601f820116820180604052508101906106b09190611daf565b90508273ffffffffffffffffffffffffffffffffffffffff1663a9059cbb33836040518363ffffffff1660e01b81526004016106ed929190611ddc565b6020604051808303816000875af115801561070c573d6000803e3d6000fd5b505050506040513d601f19601f820116820180604052508101906107309190611e31565b9150505b919050565b6000600160009054906101000a900473ffffffffffffffffffffffffffffffffffffffff16905090565b61076b610df0565b80600260146101000a81548160ff021916908360ff16021790555050565b600080600360008573ffffffffffffffffffffffffffffffffffffffff1673ffffffffffffffffffffffffffffffffffffffff16815260200190815260200160002060000160009054906101000a900473ffffffffffffffffffffffffffffffffffffffff16905060008173ffffffffffffffffffffffffffffffffffffffff1663feaf968c6040518163ffffffff1660e01b815260040160a060405180830381865afa15801561083e573d6000803e3d6000fd5b505050506040513d601f19601f820116820180604052508101906108629190611ed6565b505050915050670de0b6b3a7640000846402540be400836108839190611f80565b61088d9190611f80565b6108979190611ff1565b9250505092915050565b6000806108ac610e82565b600173ffffffffffffffffffffffffffffffffffffffff168573ffffffffffffffffffffffffffffffffffffffff161480156108e757503483115b1561092957346040517f74e0caad0000000000000000000000000000000000000000000000000000000081526004016109209190611799565b60405180910390fd5b6000610936866001610789565b90506000610945866001610789565b905060008183876109569190611f80565b6109609190611ff1565b905061096c8782610ec8565b6109a2576040517f4e8cd51e00000000000000000000000000000000000000000000000000000000815260040160405180910390fd5b600173ffffffffffffffffffffffffffffffffffffffff168873ffffffffffffffffffffffffffffffffffffffff1614610a0457610a033330888b73ffffffffffffffffffffffffffffffffffffffff16610ff2909392919063ffffffff16565b5b600173ffffffffffffffffffffffffffffffffffffffff168773ffffffffffffffffffffffffffffffffffffffff1614610a6c57610a6333828973ffffffffffffffffffffffffffffffffffffffff166110749092919063ffffffff16565b60019450610ad9565b3373ffffffffffffffffffffffffffffffffffffffff1681604051610a9090611d85565b60006040518083038185875af1925050503d8060008114610acd576040519150601f19603f3d011682016040523d82523d6000602084013e610ad2565b606091505b5050809550505b6000600360008a73ffffffffffffffffffffffffffffffffffffffff1673ffffffffffffffffffffffffffffffffffffffff1681526020019081526020016000206040518060400160405290816000820160009054906101000a900473ffffffffffffffffffffffffffffffffffffffff1673ffffffffffffffffffffffffffffffffffffffff1673ffffffffffffffffffffffffffffffffffffffff168152602001600182018054610b8b9061185f565b80601f0160208091040260200160405190810160405280929190818152602001828054610bb79061185f565b8015610c045780601f10610bd957610100808354040283529160200191610c04565b820191906000526020600020905b815481529060010190602001808311610be757829003601f168201915b50505050508152505090506000600360008a73ffffffffffffffffffffffffffffffffffffffff1673ffffffffffffffffffffffffffffffffffffffff1681526020019081526020016000206040518060400160405290816000820160009054906101000a900473ffffffffffffffffffffffffffffffffffffffff1673ffffffffffffffffffffffffffffffffffffffff1673ffffffffffffffffffffffffffffffffffffffff168152602001600182018054610cc19061185f565b80601f0160208091040260200160405190810160405280929190818152602001828054610ced9061185f565b8015610d3a5780601f10610d0f57610100808354040283529160200191610d3a565b820191906000526020600020905b815481529060010190602001808311610d1d57829003601f168201915b50505050508152505090508615610dc6578060200151604051610d5d919061205e565b60405180910390208260200151604051610d77919061205e565b60405180910390207f5018f241d97b588163de4a3b10d31d7835a1dffd47d854685fb028ed7d7cf4518a604051610dae9190611799565b60405180910390a38683965096505050505050610dcc565b50505050505b610dd46110f3565b935093915050565b610de4610df0565b610ded816110fd565b50565b600160009054906101000a900473ffffffffffffffffffffffffffffffffffffffff1673ffffffffffffffffffffffffffffffffffffffff163373ffffffffffffffffffffffffffffffffffffffff1614610e80576040517f08c379a0000000000000000000000000000000000000000000000000000000008152600401610e77906120c1565b60405180910390fd5b565b600260005403610ebe576040517f3ee5aeb500000000000000000000000000000000000000000000000000000000815260040160405180910390fd5b6002600081905550565b600080600173ffffffffffffffffffffffffffffffffffffffff168473ffffffffffffffffffffffffffffffffffffffff1614610fa75760648473ffffffffffffffffffffffffffffffffffffffff166370a08231306040518263ffffffff1660e01b8152600401610f3a9190611693565b602060405180830381865afa158015610f57573d6000803e3d6000fd5b505050506040513d601f19601f82011682018060405250810190610f7b9190611daf565b610f859190611ff1565b600260149054906101000a900460ff1660ff16610fa29190611f80565b610fd2565b606447600260149054906101000a900460ff1660ff16610fc79190611f80565b610fd19190611ff1565b5b905080831115610fe6576000915050610fec565b60019150505b92915050565b61106e848573ffffffffffffffffffffffffffffffffffffffff166323b872dd868686604051602401611027939291906120e1565b604051602081830303815290604052915060e01b6020820180517bffffffffffffffffffffffffffffffffffffffffffffffffffffffff838183161783525050505061122b565b50505050565b6110ee838473ffffffffffffffffffffffffffffffffffffffff1663a9059cbb85856040516024016110a7929190611ddc565b604051602081830303815290604052915060e01b6020820180517bffffffffffffffffffffffffffffffffffffffffffffffffffffffff838183161783525050505061122b565b505050565b6001600081905550565b3373ffffffffffffffffffffffffffffffffffffffff168173ffffffffffffffffffffffffffffffffffffffff160361116b576040517f08c379a000000000000000000000000000000000000000000000000000000000815260040161116290612164565b60405180910390fd5b80600260006101000a81548173ffffffffffffffffffffffffffffffffffffffff021916908373ffffffffffffffffffffffffffffffffffffffff1602179055508073ffffffffffffffffffffffffffffffffffffffff16600160009054906101000a900473ffffffffffffffffffffffffffffffffffffffff1673ffffffffffffffffffffffffffffffffffffffff167fed8889f560326eb138920d842192f0eb3dd22b4f139c87a2c57538e05bae127860405160405180910390a350565b6000611256828473ffffffffffffffffffffffffffffffffffffffff166112c290919063ffffffff16565b9050600081511415801561127b5750808060200190518101906112799190611e31565b155b156112bd57826040517f5274afe70000000000000000000000000000000000000000000000000000000081526004016112b49190611693565b60405180910390fd5b505050565b60606112d0838360006112d8565b905092915050565b60608147101561131f57306040517fcd7860590000000000000000000000000000000000000000000000000000000081526004016113169190611693565b60405180910390fd5b6000808573ffffffffffffffffffffffffffffffffffffffff16848660405161134891906121c0565b60006040518083038185875af1925050503d8060008114611385576040519150601f19603f3d011682016040523d82523d6000602084013e61138a565b606091505b509150915061139a8683836113a5565b925050509392505050565b6060826113ba576113b582611434565b61142c565b600082511480156113e2575060008473ffffffffffffffffffffffffffffffffffffffff163b145b1561142457836040517f9996b31500000000000000000000000000000000000000000000000000000000815260040161141b9190611693565b60405180910390fd5b81905061142d565b5b9392505050565b6000815111156114475780518082602001fd5b6040517f1425ea4200000000000000000000000000000000000000000000000000000000815260040160405180910390fd5b600080fd5b600080fd5b600073ffffffffffffffffffffffffffffffffffffffff82169050919050565b60006114ae82611483565b9050919050565b6114be816114a3565b81146114c957600080fd5b50565b6000813590506114db816114b5565b92915050565b6000602082840312156114f7576114f6611479565b5b6000611505848285016114cc565b91505092915050565b611517816114a3565b82525050565b600081519050919050565b600082825260208201905092915050565b60005b8381101561155757808201518184015260208101905061153c565b60008484015250505050565b6000601f19601f8301169050919050565b600061157f8261151d565b6115898185611528565b9350611599818560208601611539565b6115a281611563565b840191505092915050565b60006040820190506115c2600083018561150e565b81810360208301526115d48184611574565b90509392505050565b600080fd5b6000604082840312156115f8576115f76115dd565b5b81905092915050565b6000806040838503121561161857611617611479565b5b6000611626858286016114cc565b925050602083013567ffffffffffffffff8111156116475761164661147e565b5b611653858286016115e2565b9150509250929050565b60008115159050919050565b6116728161165d565b82525050565b600060208201905061168d6000830184611669565b92915050565b60006020820190506116a8600083018461150e565b92915050565b600060ff82169050919050565b6116c4816116ae565b81146116cf57600080fd5b50565b6000813590506116e1816116bb565b92915050565b6000602082840312156116fd576116fc611479565b5b600061170b848285016116d2565b91505092915050565b6000819050919050565b61172781611714565b811461173257600080fd5b50565b6000813590506117448161171e565b92915050565b6000806040838503121561176157611760611479565b5b600061176f858286016114cc565b925050602061178085828601611735565b9150509250929050565b61179381611714565b82525050565b60006020820190506117ae600083018461178a565b92915050565b6000806000606084860312156117cd576117cc611479565b5b60006117db868287016114cc565b93505060206117ec868287016114cc565b92505060406117fd86828701611735565b9150509250925092565b600060408201905061181c6000830185611669565b611829602083018461178a565b9392505050565b7f4e487b7100000000000000000000000000000000000000000000000000000000600052602260045260246000fd5b6000600282049050600182168061187757607f821691505b60208210810361188a57611889611830565b5b50919050565b6000813561189d816114b5565b80915050919050565b60008160001b9050919050565b600073ffffffffffffffffffffffffffffffffffffffff6118d3846118a6565b9350801983169250808416831791505092915050565b6000819050919050565b600061190e61190961190484611483565b6118e9565b611483565b9050919050565b6000611920826118f3565b9050919050565b600061193282611915565b9050919050565b6000819050919050565b61194c82611927565b61195f61195882611939565b83546118b3565b8255505050565b600080fd5b600080fd5b600080fd5b6000808335600160200384360303811261199257611991611966565b5b80840192508235915067ffffffffffffffff8211156119b4576119b361196b565b5b6020830192506001820236038313156119d0576119cf611970565b5b509250929050565b600082905092915050565b7f4e487b7100000000000000000000000000000000000000000000000000000000600052604160045260246000fd5b60008190508160005260206000209050919050565b60006020601f8301049050919050565b600082821b905092915050565b600060088302611a747fffffffffffffffffffffffffffffffffffffffffffffffffffffffffffffffff82611a37565b611a7e8683611a37565b95508019841693508086168417925050509392505050565b6000611ab1611aac611aa784611714565b6118e9565b611714565b9050919050565b6000819050919050565b611acb83611a96565b611adf611ad782611ab8565b848454611a44565b825550505050565b600090565b611af4611ae7565b611aff818484611ac2565b505050565b5b81811015611b2357611b18600082611aec565b600181019050611b05565b5050565b601f821115611b6857611b3981611a12565b611b4284611a27565b81016020851015611b51578190505b611b65611b5d85611a27565b830182611b04565b50505b505050565b600082821c905092915050565b6000611b8b60001984600802611b6d565b1980831691505092915050565b6000611ba48383611b7a565b9150826002028217905092915050565b611bbe83836119d8565b67ffffffffffffffff811115611bd757611bd66119e3565b5b611be1825461185f565b611bec828285611b27565b6000601f831160018114611c1b5760008415611c09578287013590505b611c138582611b98565b865550611c7b565b601f198416611c2986611a12565b60005b82811015611c5157848901358255600182019150602085019450602081019050611c2c565b86831015611c6e5784890135611c6a601f891682611b7a565b8355505b6001600288020188555050505b50505050505050565b611c8f838383611bb4565b505050565b600081016000830180611ca681611890565b9050611cb28184611943565b5050506001810160208301611cc78185611975565b611cd2818386611c84565b505050505050565b611ce48282611c94565b5050565b7f4d7573742062652070726f706f736564206f776e657200000000000000000000600082015250565b6000611d1e601683611528565b9150611d2982611ce8565b602082019050919050565b60006020820190508181036000830152611d4d81611d11565b9050919050565b600081905092915050565b50565b6000611d6f600083611d54565b9150611d7a82611d5f565b600082019050919050565b6000611d9082611d62565b9150819050919050565b600081519050611da98161171e565b92915050565b600060208284031215611dc557611dc4611479565b5b6000611dd384828501611d9a565b91505092915050565b6000604082019050611df1600083018561150e565b611dfe602083018461178a565b9392505050565b611e0e8161165d565b8114611e1957600080fd5b50565b600081519050611e2b81611e05565b92915050565b600060208284031215611e4757611e46611479565b5b6000611e5584828501611e1c565b91505092915050565b600069ffffffffffffffffffff82169050919050565b611e7d81611e5e565b8114611e8857600080fd5b50565b600081519050611e9a81611e74565b92915050565b6000819050919050565b611eb381611ea0565b8114611ebe57600080fd5b50565b600081519050611ed081611eaa565b92915050565b600080600080600060a08688031215611ef257611ef1611479565b5b6000611f0088828901611e8b565b9550506020611f1188828901611ec1565b9450506040611f2288828901611d9a565b9350506060611f3388828901611d9a565b9250506080611f4488828901611e8b565b9150509295509295909350565b7f4e487b7100000000000000000000000000000000000000000000000000000000600052601160045260246000fd5b6000611f8b82611714565b9150611f9683611714565b9250828202611fa481611714565b91508282048414831517611fbb57611fba611f51565b5b5092915050565b7f4e487b7100000000000000000000000000000000000000000000000000000000600052601260045260246000fd5b6000611ffc82611714565b915061200783611714565b92508261201757612016611fc2565b5b828204905092915050565b600081905092915050565b60006120388261151d565b6120428185612022565b9350612052818560208601611539565b80840191505092915050565b600061206a828461202d565b915081905092915050565b7f4f6e6c792063616c6c61626c65206279206f776e657200000000000000000000600082015250565b60006120ab601683611528565b91506120b682612075565b602082019050919050565b600060208201905081810360008301526120da8161209e565b9050919050565b60006060820190506120f6600083018661150e565b612103602083018561150e565b612110604083018461178a565b949350505050565b7f43616e6e6f74207472616e7366657220746f2073656c66000000000000000000600082015250565b600061214e601783611528565b915061215982612118565b602082019050919050565b6000602082019050818103600083015261217d81612141565b9050919050565b600081519050919050565b600061219a82612184565b6121a48185611d54565b93506121b4818560208601611539565b80840191505092915050565b60006121cc828461218f565b91508190509291505056fea26469706673582212206cd1b308f6ce2a65687862ef42f14dfc4cb2f67e177a415c4ad18af81518cdd564736f6c63430008180033",
  "linkReferences": {},
  "deployedLinkReferences": {}
}