{
  "_format": "hh-sol-artifact-1",
  "contractName": "CrossFlow",
  "sourceName": "contracts/CrossFlow.sol",
  "abi": [
    {
      "inputs": [
        {
          "internalType": "address",
          "name": "ccipRouterAddress",
          "type": "address"
        },
        {
          "internalType": "address",
          "name": "linkTokenAddress",
          "type": "address"
        },
        {
          "internalType": "uint64",
          "name": "currentChainSelector",
          "type": "uint64"
        },
        {
          "internalType": "address",
          "name": "usdcToken",
          "type": "address"
        },
        {
          "internalType": "address",
          "name": "dex",
          "type": "address"
        }
      ],
      "stateMutability": "nonpayable",
      "type": "constructor"
    },
    {
      "inputs": [
        {
          "internalType": "address",
          "name": "target",
          "type": "address"
        }
      ],
      "name": "AddressEmptyCode",
      "type": "error"
    },
    {
      "inputs": [
        {
          "internalType": "address",
          "name": "account",
          "type": "address"
        }
      ],
      "name": "AddressInsufficientBalance",
      "type": "error"
    },
    {
      "inputs": [
        {
          "internalType": "uint64",
          "name": "chainSelector",
          "type": "uint64"
        }
      ],
      "name": "ChainNotEnabled",
      "type": "error"
    },
    {
      "inputs": [],
      "name": "FailedInnerCall",
      "type": "error"
    },
    {
      "inputs": [
        {
          "internalType": "address",
          "name": "router",
          "type": "address"
        }
      ],
      "name": "InvalidRouter",
      "type": "error"
    },
    {
      "inputs": [
        {
          "internalType": "uint256",
          "name": "currentBalance",
          "type": "uint256"
        },
        {
          "internalType": "uint256",
          "name": "calculatedFees",
          "type": "uint256"
        }
      ],
      "name": "NotEnoughBalanceForFees",
      "type": "error"
    },
    {
      "inputs": [
        {
          "internalType": "uint64",
          "name": "chainSelector",
          "type": "uint64"
        }
      ],
      "name": "OperationNotAllowedOnCurrentChain",
      "type": "error"
    },
    {
      "inputs": [],
      "name": "ReentrancyGuardReentrantCall",
      "type": "error"
    },
    {
      "inputs": [
        {
          "internalType": "address",
          "name": "token",
          "type": "address"
        }
      ],
      "name": "SafeERC20FailedOperation",
      "type": "error"
    },
    {
      "inputs": [
        {
          "internalType": "address",
          "name": "sender",
          "type": "address"
        }
      ],
      "name": "SenderNotEnabled",
      "type": "error"
    },
    {
      "anonymous": false,
      "inputs": [
        {
          "indexed": false,
          "internalType": "uint64",
          "name": "chainSelector",
          "type": "uint64"
        }
      ],
      "name": "ChainDisabled",
      "type": "event"
    },
    {
      "anonymous": false,
      "inputs": [
        {
          "indexed": false,
          "internalType": "uint64",
          "name": "chainSelector",
          "type": "uint64"
        },
        {
          "indexed": false,
          "internalType": "address",
          "name": "xFlowAddress",
          "type": "address"
        },
        {
          "indexed": false,
          "internalType": "bytes",
          "name": "ccipExtraArgs",
          "type": "bytes"
        }
      ],
      "name": "ChainEnabled",
      "type": "event"
    },
    {
      "anonymous": false,
      "inputs": [
        {
          "indexed": true,
          "internalType": "bytes32",
          "name": "_messageId",
          "type": "bytes32"
        },
        {
          "indexed": true,
          "internalType": "uint64",
          "name": "_sourceChainSelector",
          "type": "uint64"
        },
        {
          "indexed": false,
          "internalType": "address",
          "name": "_sender",
          "type": "address"
        },
        {
          "indexed": true,
          "internalType": "address",
          "name": "_to",
          "type": "address"
        },
        {
          "indexed": false,
          "internalType": "address",
          "name": "token",
          "type": "address"
        },
        {
          "indexed": false,
          "internalType": "uint256",
          "name": "tokenAmount",
          "type": "uint256"
        }
      ],
      "name": "CrossChainReceived",
      "type": "event"
    },
    {
      "anonymous": false,
      "inputs": [
        {
          "indexed": true,
          "internalType": "bytes32",
          "name": "messageId",
          "type": "bytes32"
        },
        {
          "indexed": true,
          "internalType": "uint64",
          "name": "destinationChainSelector",
          "type": "uint64"
        },
        {
          "indexed": true,
          "internalType": "address",
          "name": "sender",
          "type": "address"
        },
        {
          "indexed": false,
          "internalType": "address",
          "name": "to",
          "type": "address"
        },
        {
          "indexed": false,
          "internalType": "address",
          "name": "token",
          "type": "address"
        },
        {
          "indexed": false,
          "internalType": "uint256",
          "name": "tokenAmount",
          "type": "uint256"
        },
        {
          "indexed": false,
          "internalType": "address",
          "name": "feeToken",
          "type": "address"
        },
        {
          "indexed": false,
          "internalType": "uint256",
          "name": "fees",
          "type": "uint256"
        }
      ],
      "name": "CrossChainSent",
      "type": "event"
    },
    {
      "anonymous": false,
      "inputs": [
        {
          "indexed": true,
          "internalType": "address",
          "name": "from",
          "type": "address"
        },
        {
          "indexed": true,
          "internalType": "address",
          "name": "to",
          "type": "address"
        }
      ],
      "name": "OwnershipTransferRequested",
      "type": "event"
    },
    {
      "anonymous": false,
      "inputs": [
        {
          "indexed": true,
          "internalType": "address",
          "name": "from",
          "type": "address"
        },
        {
          "indexed": true,
          "internalType": "address",
          "name": "to",
          "type": "address"
        }
      ],
      "name": "OwnershipTransferred",
      "type": "event"
    },
    {
      "inputs": [],
      "name": "acceptOwnership",
      "outputs": [],
      "stateMutability": "nonpayable",
      "type": "function"
    },
    {
      "inputs": [
        {
          "internalType": "string",
          "name": "",
          "type": "string"
        }
      ],
      "name": "assetAddress",
      "outputs": [
        {
          "internalType": "address",
          "name": "",
          "type": "address"
        }
      ],
      "stateMutability": "view",
      "type": "function"
    },
    {
      "inputs": [
        {
          "components": [
            {
              "internalType": "bytes32",
              "name": "messageId",
              "type": "bytes32"
            },
            {
              "internalType": "uint64",
              "name": "sourceChainSelector",
              "type": "uint64"
            },
            {
              "internalType": "bytes",
              "name": "sender",
              "type": "bytes"
            },
            {
              "internalType": "bytes",
              "name": "data",
              "type": "bytes"
            },
            {
              "components": [
                {
                  "internalType": "address",
                  "name": "token",
                  "type": "address"
                },
                {
                  "internalType": "uint256",
                  "name": "amount",
                  "type": "uint256"
                }
              ],
              "internalType": "struct Client.EVMTokenAmount[]",
              "name": "destTokenAmounts",
              "type": "tuple[]"
            }
          ],
          "internalType": "struct Client.Any2EVMMessage",
          "name": "message",
          "type": "tuple"
        }
      ],
      "name": "ccipReceive",
      "outputs": [],
      "stateMutability": "nonpayable",
      "type": "function"
    },
    {
      "inputs": [
        {
          "internalType": "uint64",
          "name": "destinationChainSelector",
          "type": "uint64"
        },
        {
          "internalType": "address",
          "name": "to",
          "type": "address"
        },
        {
          "internalType": "address",
          "name": "token",
          "type": "address"
        },
        {
          "internalType": "uint256",
          "name": "amount",
          "type": "uint256"
        },
        {
          "internalType": "enum CrossFlow.TokenType",
          "name": "tokenType",
          "type": "uint8"
        },
        {
          "internalType": "enum CrossFlow.PayFeesIn",
          "name": "payFeesIn",
          "type": "uint8"
        },
        {
          "internalType": "string",
          "name": "descSymbol",
          "type": "string"
        }
      ],
      "name": "crossChainTransferFrom",
      "outputs": [
        {
          "internalType": "bytes32",
          "name": "messageId",
          "type": "bytes32"
        }
      ],
      "stateMutability": "payable",
      "type": "function"
    },
    {
      "inputs": [
        {
          "internalType": "uint64",
          "name": "chainSelector",
          "type": "uint64"
        }
      ],
      "name": "disableChain",
      "outputs": [],
      "stateMutability": "nonpayable",
      "type": "function"
    },
    {
      "inputs": [
        {
          "internalType": "string",
          "name": "asset",
          "type": "string"
        },
        {
          "internalType": "address",
          "name": "_address",
          "type": "address"
        }
      ],
      "name": "enableAsset",
      "outputs": [],
      "stateMutability": "nonpayable",
      "type": "function"
    },
    {
      "inputs": [
        {
          "internalType": "uint64",
          "name": "chainSelector",
          "type": "uint64"
        },
        {
          "internalType": "address",
          "name": "xFlowAddress",
          "type": "address"
        },
        {
          "internalType": "bytes",
          "name": "ccipExtraArgs",
          "type": "bytes"
        }
      ],
      "name": "enableChain",
      "outputs": [],
      "stateMutability": "nonpayable",
      "type": "function"
    },
    {
      "inputs": [
        {
          "internalType": "uint64",
          "name": "destinationChainSelector",
          "type": "uint64"
        },
        {
          "internalType": "address",
          "name": "from",
          "type": "address"
        },
        {
          "internalType": "address",
          "name": "to",
          "type": "address"
        },
        {
          "internalType": "address",
          "name": "token",
          "type": "address"
        },
        {
          "internalType": "uint256",
          "name": "amount",
          "type": "uint256"
        },
        {
          "internalType": "enum CrossFlow.TokenType",
          "name": "tokenType",
          "type": "uint8"
        },
        {
          "internalType": "enum CrossFlow.PayFeesIn",
          "name": "payFeesIn",
          "type": "uint8"
        },
        {
          "internalType": "string",
          "name": "descSymbol",
          "type": "string"
        }
      ],
      "name": "getFee",
      "outputs": [
        {
          "internalType": "uint256",
          "name": "fees",
          "type": "uint256"
        },
        {
          "components": [
            {
              "internalType": "bytes",
              "name": "receiver",
              "type": "bytes"
            },
            {
              "internalType": "bytes",
              "name": "data",
              "type": "bytes"
            },
            {
              "components": [
                {
                  "internalType": "address",
                  "name": "token",
                  "type": "address"
                },
                {
                  "internalType": "uint256",
                  "name": "amount",
                  "type": "uint256"
                }
              ],
              "internalType": "struct Client.EVMTokenAmount[]",
              "name": "tokenAmounts",
              "type": "tuple[]"
            },
            {
              "internalType": "address",
              "name": "feeToken",
              "type": "address"
            },
            {
              "internalType": "bytes",
              "name": "extraArgs",
              "type": "bytes"
            }
          ],
          "internalType": "struct Client.EVM2AnyMessage",
          "name": "message",
          "type": "tuple"
        }
      ],
      "stateMutability": "view",
      "type": "function"
    },
    {
      "inputs": [],
      "name": "i_usdcToken",
      "outputs": [
        {
          "internalType": "contract IERC20",
          "name": "",
          "type": "address"
        }
      ],
      "stateMutability": "view",
      "type": "function"
    },
    {
      "inputs": [],
      "name": "i_weth",
      "outputs": [
        {
          "internalType": "contract IWrappedNative",
          "name": "",
          "type": "address"
        }
      ],
      "stateMutability": "view",
      "type": "function"
    },
    {
      "inputs": [],
      "name": "owner",
      "outputs": [
        {
          "internalType": "address",
          "name": "",
          "type": "address"
        }
      ],
      "stateMutability": "view",
      "type": "function"
    },
    {
      "inputs": [
        {
          "internalType": "uint64",
          "name": "destChainSelector",
          "type": "uint64"
        }
      ],
      "name": "s_chains",
      "outputs": [
        {
          "internalType": "address",
          "name": "xFlowAddress",
          "type": "address"
        },
        {
          "internalType": "bytes",
          "name": "ccipExtraArgsBytes",
          "type": "bytes"
        }
      ],
      "stateMutability": "view",
      "type": "function"
    },
    {
      "inputs": [
        {
          "internalType": "address",
          "name": "to",
          "type": "address"
        }
      ],
      "name": "transferOwnership",
      "outputs": [],
      "stateMutability": "nonpayable",
      "type": "function"
    }
  ],
  "bytecode": "0x6101206040523480156200001257600080fd5b506040516200488638038062004886833981810160405281019062000038919062000688565b338060008073ffffffffffffffffffffffffffffffffffffffff168273ffffffffffffffffffffffffffffffffffffffff1603620000ad576040517f08c379a0000000000000000000000000000000000000000000000000000000008152600401620000a49062000771565b60405180910390fd5b816000806101000a81548173ffffffffffffffffffffffffffffffffffffffff021916908373ffffffffffffffffffffffffffffffffffffffff160217905550600073ffffffffffffffffffffffffffffffffffffffff168173ffffffffffffffffffffffffffffffffffffffff161462000134576200013381620004aa60201b60201c565b5b5050506001600281905550600073ffffffffffffffffffffffffffffffffffffffff168573ffffffffffffffffffffffffffffffffffffffff1603620001b45760006040517fd7f73334000000000000000000000000000000000000000000000000000000008152600401620001ab9190620007a4565b60405180910390fd5b8473ffffffffffffffffffffffffffffffffffffffff1660808173ffffffffffffffffffffffffffffffffffffffff16815250508373ffffffffffffffffffffffffffffffffffffffff1660a08173ffffffffffffffffffffffffffffffffffffffff16815250508267ffffffffffffffff166101008167ffffffffffffffff16815250508473ffffffffffffffffffffffffffffffffffffffff1663e861e9076040518163ffffffff1660e01b8152600401602060405180830381865afa15801562000285573d6000803e3d6000fd5b505050506040513d601f19601f82011682018060405250810190620002ab9190620007c1565b73ffffffffffffffffffffffffffffffffffffffff1660c08173ffffffffffffffffffffffffffffffffffffffff168152505060c05173ffffffffffffffffffffffffffffffffffffffff1663095ea7b3867fffffffffffffffffffffffffffffffffffffffffffffffffffffffffffffffff6040518363ffffffff1660e01b81526004016200033d9291906200080e565b6020604051808303816000875af11580156200035d573d6000803e3d6000fd5b505050506040513d601f19601f8201168201806040525081019062000383919062000878565b5080600360006101000a81548173ffffffffffffffffffffffffffffffffffffffff021916908373ffffffffffffffffffffffffffffffffffffffff16021790555060c05173ffffffffffffffffffffffffffffffffffffffff1663095ea7b3827fffffffffffffffffffffffffffffffffffffffffffffffffffffffffffffffff6040518363ffffffff1660e01b8152600401620004249291906200080e565b6020604051808303816000875af115801562000444573d6000803e3d6000fd5b505050506040513d601f19601f820116820180604052508101906200046a919062000878565b508173ffffffffffffffffffffffffffffffffffffffff1660e08173ffffffffffffffffffffffffffffffffffffffff168152505050505050506200091c565b3373ffffffffffffffffffffffffffffffffffffffff168173ffffffffffffffffffffffffffffffffffffffff16036200051b576040517f08c379a00000000000000000000000000000000000000000000000000000000081526004016200051290620008fa565b60405180910390fd5b80600160006101000a81548173ffffffffffffffffffffffffffffffffffffffff021916908373ffffffffffffffffffffffffffffffffffffffff1602179055508073ffffffffffffffffffffffffffffffffffffffff1660008054906101000a900473ffffffffffffffffffffffffffffffffffffffff1673ffffffffffffffffffffffffffffffffffffffff167fed8889f560326eb138920d842192f0eb3dd22b4f139c87a2c57538e05bae127860405160405180910390a350565b600080fd5b600073ffffffffffffffffffffffffffffffffffffffff82169050919050565b60006200060b82620005de565b9050919050565b6200061d81620005fe565b81146200062957600080fd5b50565b6000815190506200063d8162000612565b92915050565b600067ffffffffffffffff82169050919050565b620006628162000643565b81146200066e57600080fd5b50565b600081519050620006828162000657565b92915050565b600080600080600060a08688031215620006a757620006a6620005d9565b5b6000620006b7888289016200062c565b9550506020620006ca888289016200062c565b9450506040620006dd8882890162000671565b9350506060620006f0888289016200062c565b925050608062000703888289016200062c565b9150509295509295909350565b600082825260208201905092915050565b7f43616e6e6f7420736574206f776e657220746f207a65726f0000000000000000600082015250565b60006200075960188362000710565b9150620007668262000721565b602082019050919050565b600060208201905081810360008301526200078c816200074a565b9050919050565b6200079e81620005fe565b82525050565b6000602082019050620007bb600083018462000793565b92915050565b600060208284031215620007da57620007d9620005d9565b5b6000620007ea848285016200062c565b91505092915050565b6000819050919050565b6200080881620007f3565b82525050565b600060408201905062000825600083018562000793565b620008346020830184620007fd565b9392505050565b60008115159050919050565b62000852816200083b565b81146200085e57600080fd5b50565b600081519050620008728162000847565b92915050565b600060208284031215620008915762000890620005d9565b5b6000620008a18482850162000861565b91505092915050565b7f43616e6e6f74207472616e7366657220746f2073656c66000000000000000000600082015250565b6000620008e260178362000710565b9150620008ef82620008aa565b602082019050919050565b600060208201905081810360008301526200091581620008d3565b9050919050565b60805160a05160c05160e05161010051613ea0620009e660003960008181610320015261049401526000818161184d01528181611ca50152611d2b0152600081816105a801528181610c0c01528181610d0801528181610d8901528181611079015281816110fa01528181611a190152611ac70152600081816116ab01528181611df101528181611e9201528181611f6a0152818161202901526122d101526000818161082d015281816117a001528181611fa6015281816120ca01526121b60152613ea06000f3fe6080604052600436106100c25760003560e01c80638da5cb5b1161007f578063a104cd4b11610059578063a104cd4b14610256578063a4e9c2f41461027f578063b2c60258146102bc578063f2fde38b146102ec576100c2565b80638da5cb5b146101c25780639504d590146101ed57806398528d631461022b576100c2565b80630ce639c4146100c757806341eade46146100f05780634dbe7e92146101195780635dc5ebdb1461014457806379ba50971461018257806385572ffb14610199575b600080fd5b3480156100d357600080fd5b506100ee60048036038101906100e99190612adb565b610315565b005b3480156100fc57600080fd5b5061011760048036038101906101129190612b4a565b610489565b005b34801561012557600080fd5b5061012e6105a6565b60405161013b9190612bd6565b60405180910390f35b34801561015057600080fd5b5061016b60048036038101906101669190612b4a565b6105ca565b604051610179929190612c7f565b60405180910390f35b34801561018e57600080fd5b50610197610696565b005b3480156101a557600080fd5b506101c060048036038101906101bb9190612cd3565b61082b565b005b3480156101ce57600080fd5b506101d76114f4565b6040516101e49190612d1c565b60405180910390f35b3480156101f957600080fd5b50610214600480360381019061020f9190612e17565b61151d565b6040516102229291906130cd565b60405180910390f35b34801561023757600080fd5b5061024061184b565b60405161024d919061311e565b60405180910390f35b34801561026257600080fd5b5061027d600480360381019061027891906131da565b61186f565b005b34801561028b57600080fd5b506102a660048036038101906102a19190613236565b6118d8565b6040516102b39190612d1c565b60405180910390f35b6102d660048036038101906102d1919061327f565b611921565b6040516102e3919061335a565b60405180910390f35b3480156102f857600080fd5b50610313600480360381019061030e9190613375565b612323565b005b61031d612337565b827f000000000000000000000000000000000000000000000000000000000000000067ffffffffffffffff168167ffffffffffffffff160361039657806040517f40d8e3a100000000000000000000000000000000000000000000000000000000815260040161038d91906133b1565b60405180910390fd5b60405180604001604052808473ffffffffffffffffffffffffffffffffffffffff16815260200183815250600460008667ffffffffffffffff1667ffffffffffffffff16815260200190815260200160002060008201518160000160006101000a81548173ffffffffffffffffffffffffffffffffffffffff021916908373ffffffffffffffffffffffffffffffffffffffff160217905550602082015181600101908161044491906135ce565b509050507f59cc0b49d3359ac35e3872e99199469b6a1025c9a945cd9b6a411bffe337272d84848460405161047b939291906136a0565b60405180910390a150505050565b610491612337565b807f000000000000000000000000000000000000000000000000000000000000000067ffffffffffffffff168167ffffffffffffffff160361050a57806040517f40d8e3a100000000000000000000000000000000000000000000000000000000815260040161050191906133b1565b60405180910390fd5b600460008367ffffffffffffffff1667ffffffffffffffff168152602001908152602001600020600080820160006101000a81549073ffffffffffffffffffffffffffffffffffffffff02191690556001820160006105699190612811565b50507f67e02000179a6045f4db8fb1b09f01e170b0347e0b698fc5112ce4d798ef19f68260405161059a91906133b1565b60405180910390a15050565b7f000000000000000000000000000000000000000000000000000000000000000081565b60046020528060005260406000206000915090508060000160009054906101000a900473ffffffffffffffffffffffffffffffffffffffff1690806001018054610613906133fb565b80601f016020809104026020016040519081016040528092919081815260200182805461063f906133fb565b801561068c5780601f106106615761010080835404028352916020019161068c565b820191906000526020600020905b81548152906001019060200180831161066f57829003601f168201915b5050505050905082565b600160009054906101000a900473ffffffffffffffffffffffffffffffffffffffff1673ffffffffffffffffffffffffffffffffffffffff163373ffffffffffffffffffffffffffffffffffffffff1614610726576040517f08c379a000000000000000000000000000000000000000000000000000000000815260040161071d9061373b565b60405180910390fd5b60008060009054906101000a900473ffffffffffffffffffffffffffffffffffffffff169050336000806101000a81548173ffffffffffffffffffffffffffffffffffffffff021916908373ffffffffffffffffffffffffffffffffffffffff1602179055506000600160006101000a81548173ffffffffffffffffffffffffffffffffffffffff021916908373ffffffffffffffffffffffffffffffffffffffff1602179055503373ffffffffffffffffffffffffffffffffffffffff168173ffffffffffffffffffffffffffffffffffffffff167f8be0079c531659141344cd1fd0a4f28419497f9722a3daafe3b4186f6b6457e060405160405180910390a350565b7f000000000000000000000000000000000000000000000000000000000000000073ffffffffffffffffffffffffffffffffffffffff163373ffffffffffffffffffffffffffffffffffffffff16146108bb57336040517fd7f733340000000000000000000000000000000000000000000000000000000081526004016108b29190612d1c565b60405180910390fd5b6108c36123c7565b8060200160208101906108d69190612b4a565b600073ffffffffffffffffffffffffffffffffffffffff16600460008367ffffffffffffffff1667ffffffffffffffff16815260200190815260200160002060000160009054906101000a900473ffffffffffffffffffffffffffffffffffffffff1673ffffffffffffffffffffffffffffffffffffffff160361099157806040517f1c33fbee00000000000000000000000000000000000000000000000000000000815260040161098891906133b1565b60405180910390fd5b8160200160208101906109a49190612b4a565b8280604001906109b4919061376a565b8101906109c1919061380b565b8073ffffffffffffffffffffffffffffffffffffffff16600460008467ffffffffffffffff1667ffffffffffffffff16815260200190815260200160002060000160009054906101000a900473ffffffffffffffffffffffffffffffffffffffff1673ffffffffffffffffffffffffffffffffffffffff1614610a7b57806040517fbaf46cd1000000000000000000000000000000000000000000000000000000008152600401610a729190612d1c565b60405180910390fd5b6000846000013590506000856020016020810190610a999190612b4a565b9050600080600080898060600190610ab1919061376a565b810190610abe9190613838565b935093509350935060008a8060800190610ad891906138bb565b6000818110610aea57610ae961391e565b5b9050604002016000016020810190610b029190613375565b905060008b8060800190610b1691906138bb565b6000818110610b2857610b2761391e565b5b9050604002016020013590506000600584604051610b469190613994565b908152602001604051809103902060009054906101000a900473ffffffffffffffffffffffffffffffffffffffff169050846003811115610b8a57610b896139ab565b5b600380811115610b9d57610b9c6139ab565b5b1480610bcd5750846003811115610bb757610bb66139ab565b5b60026003811115610bcb57610bca6139ab565b5b145b8015610c055750600173ffffffffffffffffffffffffffffffffffffffff168173ffffffffffffffffffffffffffffffffffffffff16145b15610e29577f000000000000000000000000000000000000000000000000000000000000000073ffffffffffffffffffffffffffffffffffffffff16632e1a7d4d836040518263ffffffff1660e01b8152600401610c6391906139da565b600060405180830381600087803b158015610c7d57600080fd5b505af1158015610c91573d6000803e3d6000fd5b5050505060008773ffffffffffffffffffffffffffffffffffffffff1683604051610cbb90613a26565b60006040518083038185875af1925050503d8060008114610cf8576040519150601f19603f3d011682016040523d82523d6000602084013e610cfd565b606091505b5050905080610e27577f000000000000000000000000000000000000000000000000000000000000000073ffffffffffffffffffffffffffffffffffffffff1663d0e30db0846040518263ffffffff1660e01b81526004016000604051808303818588803b158015610d6e57600080fd5b505af1158015610d82573d6000803e3d6000fd5b50505050507f000000000000000000000000000000000000000000000000000000000000000073ffffffffffffffffffffffffffffffffffffffff1663a9059cbb89856040518363ffffffff1660e01b8152600401610de2929190613a3b565b6020604051808303816000875af1158015610e01573d6000803e3d6000fd5b505050506040513d601f19601f82011682018060405250810190610e259190613a9c565b505b505b846003811115610e3c57610e3b6139ab565b5b60006003811115610e5057610e4f6139ab565b5b1480610e805750846003811115610e6a57610e696139ab565b5b60016003811115610e7e57610e7d6139ab565b5b145b8015610eb85750600173ffffffffffffffffffffffffffffffffffffffff168173ffffffffffffffffffffffffffffffffffffffff16145b1561119c578273ffffffffffffffffffffffffffffffffffffffff1663095ea7b3600360009054906101000a900473ffffffffffffffffffffffffffffffffffffffff16846040518363ffffffff1660e01b8152600401610f1a929190613a3b565b6020604051808303816000875af1158015610f39573d6000803e3d6000fd5b505050506040513d601f19601f82011682018060405250810190610f5d9190613a9c565b50600080600360009054906101000a900473ffffffffffffffffffffffffffffffffffffffff1673ffffffffffffffffffffffffffffffffffffffff1663df791e508685876040518463ffffffff1660e01b8152600401610fc093929190613ac9565b60408051808303816000875af1158015610fde573d6000803e3d6000fd5b505050506040513d601f19601f820116820180604052508101906110029190613b15565b9150915060008973ffffffffffffffffffffffffffffffffffffffff168560405161102c90613a26565b60006040518083038185875af1925050503d8060008114611069576040519150601f19603f3d011682016040523d82523d6000602084013e61106e565b606091505b5050905080611198577f000000000000000000000000000000000000000000000000000000000000000073ffffffffffffffffffffffffffffffffffffffff1663d0e30db0866040518263ffffffff1660e01b81526004016000604051808303818588803b1580156110df57600080fd5b505af11580156110f3573d6000803e3d6000fd5b50505050507f000000000000000000000000000000000000000000000000000000000000000073ffffffffffffffffffffffffffffffffffffffff1663a9059cbb8b876040518363ffffffff1660e01b8152600401611153929190613a3b565b6020604051808303816000875af1158015611172573d6000803e3d6000fd5b505050506040513d601f19601f820116820180604052508101906111969190613a9c565b505b5050505b8460038111156111af576111ae6139ab565b5b600060038111156111c3576111c26139ab565b5b14806111f357508460038111156111dd576111dc6139ab565b5b600160038111156111f1576111f06139ab565b5b145b801561122b57508273ffffffffffffffffffffffffffffffffffffffff168173ffffffffffffffffffffffffffffffffffffffff1614155b156113ff578273ffffffffffffffffffffffffffffffffffffffff1663095ea7b3600360009054906101000a900473ffffffffffffffffffffffffffffffffffffffff16846040518363ffffffff1660e01b815260040161128d929190613a3b565b6020604051808303816000875af11580156112ac573d6000803e3d6000fd5b505050506040513d601f19601f820116820180604052508101906112d09190613a9c565b50600080600360009054906101000a900473ffffffffffffffffffffffffffffffffffffffff1673ffffffffffffffffffffffffffffffffffffffff1663df791e508685876040518463ffffffff1660e01b815260040161133393929190613ac9565b60408051808303816000875af1158015611351573d6000803e3d6000fd5b505050506040513d601f19601f820116820180604052508101906113759190613b15565b915091508273ffffffffffffffffffffffffffffffffffffffff1663a9059cbb8a866040518363ffffffff1660e01b81526004016113b4929190613a3b565b6020604051808303816000875af11580156113d3573d6000803e3d6000fd5b505050506040513d601f19601f820116820180604052508101906113f79190613a9c565b50505061147f565b8273ffffffffffffffffffffffffffffffffffffffff1663a9059cbb88846040518363ffffffff1660e01b815260040161143a929190613a3b565b6020604051808303816000875af1158015611459573d6000803e3d6000fd5b505050506040513d601f19601f8201168201806040525081019061147d9190613a9c565b505b8673ffffffffffffffffffffffffffffffffffffffff168867ffffffffffffffff168a7f2bdc817a1658bbced9bce45a149ca9a14d26efea093ab69d3a05290ee29119338987876040516114d593929190613ac9565b60405180910390a45050505050505050505050506114f161240b565b50565b60008060009054906101000a900473ffffffffffffffffffffffffffffffffffffffff16905090565b6000611527612851565b6000600167ffffffffffffffff811115611544576115436129b0565b5b60405190808252806020026020018201604052801561157d57816020015b61156a612896565b8152602001906001900390816115625790505b50905060405180604001604052808a73ffffffffffffffffffffffffffffffffffffffff16815260200189815250816000815181106115bf576115be61391e565b5b60200260200101819052506040518060a00160405280600460008f67ffffffffffffffff1667ffffffffffffffff16815260200190815260200160002060000160009054906101000a900473ffffffffffffffffffffffffffffffffffffffff166040516020016116309190612d1c565b60405160208183030381529060405281526020018b8d8a898960405160200161165d959493929190613bca565b604051602081830303815290604052815260200182815260200160018081111561168a576116896139ab565b5b88600181111561169d5761169c6139ab565b5b146116a95760006116cb565b7f00000000000000000000000000000000000000000000000000000000000000005b73ffffffffffffffffffffffffffffffffffffffff168152602001600460008f67ffffffffffffffff1667ffffffffffffffff168152602001908152602001600020600101805461171b906133fb565b80601f0160208091040260200160405190810160405280929190818152602001828054611747906133fb565b80156117945780601f1061176957610100808354040283529160200191611794565b820191906000526020600020905b81548152906001019060200180831161177757829003601f168201915b505050505081525091507f000000000000000000000000000000000000000000000000000000000000000073ffffffffffffffffffffffffffffffffffffffff166320487ded8d846040518363ffffffff1660e01b81526004016117f9929190613c18565b602060405180830381865afa158015611816573d6000803e3d6000fd5b505050506040513d601f19601f8201168201806040525081019061183a9190613c48565b925050995099975050505050505050565b7f000000000000000000000000000000000000000000000000000000000000000081565b611877612337565b806005836040516118889190613994565b908152602001604051809103902060006101000a81548173ffffffffffffffffffffffffffffffffffffffff021916908373ffffffffffffffffffffffffffffffffffffffff1602179055505050565b6005818051602081018201805184825260208301602085012081835280955050505050506000915054906101000a900473ffffffffffffffffffffffffffffffffffffffff1681565b600061192b6123c7565b88600073ffffffffffffffffffffffffffffffffffffffff16600460008367ffffffffffffffff1667ffffffffffffffff16815260200190815260200160002060000160009054906101000a900473ffffffffffffffffffffffffffffffffffffffff1673ffffffffffffffffffffffffffffffffffffffff16036119e757806040517f1c33fbee0000000000000000000000000000000000000000000000000000000081526004016119de91906133b1565b60405180910390fd5b60008890506003808111156119ff576119fe6139ab565b5b876003811115611a1257611a116139ab565b5b03611a99577f000000000000000000000000000000000000000000000000000000000000000073ffffffffffffffffffffffffffffffffffffffff1663d0e30db0896040518263ffffffff1660e01b81526004016000604051808303818588803b158015611a7f57600080fd5b505af1158015611a93573d6000803e3d6000fd5b50505050505b60026003811115611aad57611aac6139ab565b5b876003811115611ac057611abf6139ab565b5b03611b67577f000000000000000000000000000000000000000000000000000000000000000073ffffffffffffffffffffffffffffffffffffffff166323b872dd33308b6040518463ffffffff1660e01b8152600401611b2293929190613ac9565b6020604051808303816000875af1158015611b41573d6000803e3d6000fd5b505050506040513d601f19601f82011682018060405250810190611b659190613a9c565b505b60016003811115611b7b57611b7a6139ab565b5b876003811115611b8e57611b8d6139ab565b5b03611d5257611bc033308a8c73ffffffffffffffffffffffffffffffffffffffff16612415909392919063ffffffff16565b8873ffffffffffffffffffffffffffffffffffffffff1663095ea7b3600360009054906101000a900473ffffffffffffffffffffffffffffffffffffffff168a6040518363ffffffff1660e01b8152600401611c1d929190613a3b565b6020604051808303816000875af1158015611c3c573d6000803e3d6000fd5b505050506040513d601f19601f82011682018060405250810190611c609190613a9c565b50600080600360009054906101000a900473ffffffffffffffffffffffffffffffffffffffff1673ffffffffffffffffffffffffffffffffffffffff1663df791e508c7f00000000000000000000000000000000000000000000000000000000000000008d6040518463ffffffff1660e01b8152600401611ce393929190613ac9565b60408051808303816000875af1158015611d01573d6000803e3d6000fd5b505050506040513d601f19601f82011682018060405250810190611d259190613b15565b915091507f00000000000000000000000000000000000000000000000000000000000000009a5080995050505b60006003811115611d6657611d656139ab565b5b876003811115611d7957611d786139ab565b5b03611dac57611dab33308a8c73ffffffffffffffffffffffffffffffffffffffff16612415909392919063ffffffff16565b5b600080611dc08d338e8e8e8e8e8e8e61151d565b91509150600180811115611dd757611dd66139ab565b5b886001811115611dea57611de96139ab565b5b0361216d577f000000000000000000000000000000000000000000000000000000000000000073ffffffffffffffffffffffffffffffffffffffff166370a08231336040518263ffffffff1660e01b8152600401611e489190612d1c565b602060405180830381865afa158015611e65573d6000803e3d6000fd5b505050506040513d601f19601f82011682018060405250810190611e899190613c48565b821115611f68577f000000000000000000000000000000000000000000000000000000000000000073ffffffffffffffffffffffffffffffffffffffff166370a08231336040518263ffffffff1660e01b8152600401611ee99190612d1c565b602060405180830381865afa158015611f06573d6000803e3d6000fd5b505050506040513d601f19601f82011682018060405250810190611f2a9190613c48565b826040517f28fdcaa1000000000000000000000000000000000000000000000000000000008152600401611f5f929190613c75565b60405180910390fd5b7f000000000000000000000000000000000000000000000000000000000000000073ffffffffffffffffffffffffffffffffffffffff1663095ea7b37f0000000000000000000000000000000000000000000000000000000000000000846040518363ffffffff1660e01b8152600401611fe3929190613a3b565b6020604051808303816000875af1158015612002573d6000803e3d6000fd5b505050506040513d601f19601f820116820180604052508101906120269190613a9c565b507f000000000000000000000000000000000000000000000000000000000000000073ffffffffffffffffffffffffffffffffffffffff166323b872dd3330856040518463ffffffff1660e01b815260040161208493929190613ac9565b6020604051808303816000875af11580156120a3573d6000803e3d6000fd5b505050506040513d601f19601f820116820180604052508101906120c79190613a9c565b507f000000000000000000000000000000000000000000000000000000000000000073ffffffffffffffffffffffffffffffffffffffff166396f4e9f98e836040518363ffffffff1660e01b8152600401612123929190613c18565b6020604051808303816000875af1158015612142573d6000803e3d6000fd5b505050506040513d601f19601f820116820180604052508101906121669190613cca565b9450612256565b478211156121b45747826040517f28fdcaa10000000000000000000000000000000000000000000000000000000081526004016121ab929190613c75565b60405180910390fd5b7f000000000000000000000000000000000000000000000000000000000000000073ffffffffffffffffffffffffffffffffffffffff166396f4e9f9838f846040518463ffffffff1660e01b8152600401612210929190613c18565b60206040518083038185885af115801561222e573d6000803e3d6000fd5b50505050506040513d601f19601f820116820180604052508101906122539190613cca565b94505b3373ffffffffffffffffffffffffffffffffffffffff168d67ffffffffffffffff16867f331296c5a2dc25edc71caa982f98f8037b820d53fccec9f3e0e1e15c3c2929368f878f6001808111156122b0576122af6139ab565b5b8f60018111156122c3576122c26139ab565b5b146122cf5760006122f1565b7f00000000000000000000000000000000000000000000000000000000000000005b89604051612303959493929190613cf7565b60405180910390a45050505061231761240b565b98975050505050505050565b61232b612337565b61233481612497565b50565b60008054906101000a900473ffffffffffffffffffffffffffffffffffffffff1673ffffffffffffffffffffffffffffffffffffffff163373ffffffffffffffffffffffffffffffffffffffff16146123c5576040517f08c379a00000000000000000000000000000000000000000000000000000000081526004016123bc90613d96565b60405180910390fd5b565b6002805403612402576040517f3ee5aeb500000000000000000000000000000000000000000000000000000000815260040160405180910390fd5b60028081905550565b6001600281905550565b612491848573ffffffffffffffffffffffffffffffffffffffff166323b872dd86868660405160240161244a93929190613ac9565b604051602081830303815290604052915060e01b6020820180517bffffffffffffffffffffffffffffffffffffffffffffffffffffffff83818316178352505050506125c3565b50505050565b3373ffffffffffffffffffffffffffffffffffffffff168173ffffffffffffffffffffffffffffffffffffffff1603612505576040517f08c379a00000000000000000000000000000000000000000000000000000000081526004016124fc90613e02565b60405180910390fd5b80600160006101000a81548173ffffffffffffffffffffffffffffffffffffffff021916908373ffffffffffffffffffffffffffffffffffffffff1602179055508073ffffffffffffffffffffffffffffffffffffffff1660008054906101000a900473ffffffffffffffffffffffffffffffffffffffff1673ffffffffffffffffffffffffffffffffffffffff167fed8889f560326eb138920d842192f0eb3dd22b4f139c87a2c57538e05bae127860405160405180910390a350565b60006125ee828473ffffffffffffffffffffffffffffffffffffffff1661265a90919063ffffffff16565b905060008151141580156126135750808060200190518101906126119190613a9c565b155b1561265557826040517f5274afe700000000000000000000000000000000000000000000000000000000815260040161264c9190612d1c565b60405180910390fd5b505050565b606061266883836000612670565b905092915050565b6060814710156126b757306040517fcd7860590000000000000000000000000000000000000000000000000000000081526004016126ae9190612d1c565b60405180910390fd5b6000808573ffffffffffffffffffffffffffffffffffffffff1684866040516126e09190613e53565b60006040518083038185875af1925050503d806000811461271d576040519150601f19603f3d011682016040523d82523d6000602084013e612722565b606091505b509150915061273286838361273d565b925050509392505050565b6060826127525761274d826127cc565b6127c4565b6000825114801561277a575060008473ffffffffffffffffffffffffffffffffffffffff163b145b156127bc57836040517f9996b3150000000000000000000000000000000000000000000000000000000081526004016127b39190612d1c565b60405180910390fd5b8190506127c5565b5b9392505050565b6000815111156127df5780518082602001fd5b6040517f1425ea4200000000000000000000000000000000000000000000000000000000815260040160405180910390fd5b50805461281d906133fb565b6000825580601f1061282f575061284e565b601f01602090049060005260206000209081019061284d91906128c6565b5b50565b6040518060a00160405280606081526020016060815260200160608152602001600073ffffffffffffffffffffffffffffffffffffffff168152602001606081525090565b6040518060400160405280600073ffffffffffffffffffffffffffffffffffffffff168152602001600081525090565b5b808211156128df5760008160009055506001016128c7565b5090565b6000604051905090565b600080fd5b600080fd5b600067ffffffffffffffff82169050919050565b612914816128f7565b811461291f57600080fd5b50565b6000813590506129318161290b565b92915050565b600073ffffffffffffffffffffffffffffffffffffffff82169050919050565b600061296282612937565b9050919050565b61297281612957565b811461297d57600080fd5b50565b60008135905061298f81612969565b92915050565b600080fd5b600080fd5b6000601f19601f8301169050919050565b7f4e487b7100000000000000000000000000000000000000000000000000000000600052604160045260246000fd5b6129e88261299f565b810181811067ffffffffffffffff82111715612a0757612a066129b0565b5b80604052505050565b6000612a1a6128e3565b9050612a2682826129df565b919050565b600067ffffffffffffffff821115612a4657612a456129b0565b5b612a4f8261299f565b9050602081019050919050565b82818337600083830152505050565b6000612a7e612a7984612a2b565b612a10565b905082815260208101848484011115612a9a57612a9961299a565b5b612aa5848285612a5c565b509392505050565b600082601f830112612ac257612ac1612995565b5b8135612ad2848260208601612a6b565b91505092915050565b600080600060608486031215612af457612af36128ed565b5b6000612b0286828701612922565b9350506020612b1386828701612980565b925050604084013567ffffffffffffffff811115612b3457612b336128f2565b5b612b4086828701612aad565b9150509250925092565b600060208284031215612b6057612b5f6128ed565b5b6000612b6e84828501612922565b91505092915050565b6000819050919050565b6000612b9c612b97612b9284612937565b612b77565b612937565b9050919050565b6000612bae82612b81565b9050919050565b6000612bc082612ba3565b9050919050565b612bd081612bb5565b82525050565b6000602082019050612beb6000830184612bc7565b92915050565b612bfa81612957565b82525050565b600081519050919050565b600082825260208201905092915050565b60005b83811015612c3a578082015181840152602081019050612c1f565b60008484015250505050565b6000612c5182612c00565b612c5b8185612c0b565b9350612c6b818560208601612c1c565b612c748161299f565b840191505092915050565b6000604082019050612c946000830185612bf1565b8181036020830152612ca68184612c46565b90509392505050565b600080fd5b600060a08284031215612cca57612cc9612caf565b5b81905092915050565b600060208284031215612ce957612ce86128ed565b5b600082013567ffffffffffffffff811115612d0757612d066128f2565b5b612d1384828501612cb4565b91505092915050565b6000602082019050612d316000830184612bf1565b92915050565b6000819050919050565b612d4a81612d37565b8114612d5557600080fd5b50565b600081359050612d6781612d41565b92915050565b60048110612d7a57600080fd5b50565b600081359050612d8c81612d6d565b92915050565b60028110612d9f57600080fd5b50565b600081359050612db181612d92565b92915050565b600080fd5b600080fd5b60008083601f840112612dd757612dd6612995565b5b8235905067ffffffffffffffff811115612df457612df3612db7565b5b602083019150836001820283011115612e1057612e0f612dbc565b5b9250929050565b60008060008060008060008060006101008a8c031215612e3a57612e396128ed565b5b6000612e488c828d01612922565b9950506020612e598c828d01612980565b9850506040612e6a8c828d01612980565b9750506060612e7b8c828d01612980565b9650506080612e8c8c828d01612d58565b95505060a0612e9d8c828d01612d7d565b94505060c0612eae8c828d01612da2565b93505060e08a013567ffffffffffffffff811115612ecf57612ece6128f2565b5b612edb8c828d01612dc1565b92509250509295985092959850929598565b612ef681612d37565b82525050565b600082825260208201905092915050565b6000612f1882612c00565b612f228185612efc565b9350612f32818560208601612c1c565b612f3b8161299f565b840191505092915050565b600081519050919050565b600082825260208201905092915050565b6000819050602082019050919050565b612f7b81612957565b82525050565b612f8a81612d37565b82525050565b604082016000820151612fa66000850182612f72565b506020820151612fb96020850182612f81565b50505050565b6000612fcb8383612f90565b60408301905092915050565b6000602082019050919050565b6000612fef82612f46565b612ff98185612f51565b935061300483612f62565b8060005b8381101561303557815161301c8882612fbf565b975061302783612fd7565b925050600181019050613008565b5085935050505092915050565b600060a083016000830151848203600086015261305f8282612f0d565b915050602083015184820360208601526130798282612f0d565b915050604083015184820360408601526130938282612fe4565b91505060608301516130a86060860182612f72565b50608083015184820360808601526130c08282612f0d565b9150508091505092915050565b60006040820190506130e26000830185612eed565b81810360208301526130f48184613042565b90509392505050565b600061310882612ba3565b9050919050565b613118816130fd565b82525050565b6000602082019050613133600083018461310f565b92915050565b600067ffffffffffffffff821115613154576131536129b0565b5b61315d8261299f565b9050602081019050919050565b600061317d61317884613139565b612a10565b9050828152602081018484840111156131995761319861299a565b5b6131a4848285612a5c565b509392505050565b600082601f8301126131c1576131c0612995565b5b81356131d184826020860161316a565b91505092915050565b600080604083850312156131f1576131f06128ed565b5b600083013567ffffffffffffffff81111561320f5761320e6128f2565b5b61321b858286016131ac565b925050602061322c85828601612980565b9150509250929050565b60006020828403121561324c5761324b6128ed565b5b600082013567ffffffffffffffff81111561326a576132696128f2565b5b613276848285016131ac565b91505092915050565b60008060008060008060008060e0898b03121561329f5761329e6128ed565b5b60006132ad8b828c01612922565b98505060206132be8b828c01612980565b97505060406132cf8b828c01612980565b96505060606132e08b828c01612d58565b95505060806132f18b828c01612d7d565b94505060a06133028b828c01612da2565b93505060c089013567ffffffffffffffff811115613323576133226128f2565b5b61332f8b828c01612dc1565b92509250509295985092959890939650565b6000819050919050565b61335481613341565b82525050565b600060208201905061336f600083018461334b565b92915050565b60006020828403121561338b5761338a6128ed565b5b600061339984828501612980565b91505092915050565b6133ab816128f7565b82525050565b60006020820190506133c660008301846133a2565b92915050565b7f4e487b7100000000000000000000000000000000000000000000000000000000600052602260045260246000fd5b6000600282049050600182168061341357607f821691505b602082108103613426576134256133cc565b5b50919050565b60008190508160005260206000209050919050565b60006020601f8301049050919050565b600082821b905092915050565b60006008830261348e7fffffffffffffffffffffffffffffffffffffffffffffffffffffffffffffffff82613451565b6134988683613451565b95508019841693508086168417925050509392505050565b60006134cb6134c66134c184612d37565b612b77565b612d37565b9050919050565b6000819050919050565b6134e5836134b0565b6134f96134f1826134d2565b84845461345e565b825550505050565b600090565b61350e613501565b6135198184846134dc565b505050565b5b8181101561353d57613532600082613506565b60018101905061351f565b5050565b601f821115613582576135538161342c565b61355c84613441565b8101602085101561356b578190505b61357f61357785613441565b83018261351e565b50505b505050565b600082821c905092915050565b60006135a560001984600802613587565b1980831691505092915050565b60006135be8383613594565b9150826002028217905092915050565b6135d782612c00565b67ffffffffffffffff8111156135f0576135ef6129b0565b5b6135fa82546133fb565b613605828285613541565b600060209050601f8311600181146136385760008415613626578287015190505b61363085826135b2565b865550613698565b601f1984166136468661342c565b60005b8281101561366e57848901518255600182019150602085019450602081019050613649565b8683101561368b5784890151613687601f891682613594565b8355505b6001600288020188555050505b505050505050565b60006060820190506136b560008301866133a2565b6136c26020830185612bf1565b81810360408301526136d48184612c46565b9050949350505050565b600082825260208201905092915050565b7f4d7573742062652070726f706f736564206f776e657200000000000000000000600082015250565b60006137256016836136de565b9150613730826136ef565b602082019050919050565b6000602082019050818103600083015261375481613718565b9050919050565b600080fd5b600080fd5b600080fd5b600080833560016020038436030381126137875761378661375b565b5b80840192508235915067ffffffffffffffff8211156137a9576137a8613760565b5b6020830192506001820236038313156137c5576137c4613765565b5b509250929050565b60006137d882612937565b9050919050565b6137e8816137cd565b81146137f357600080fd5b50565b600081359050613805816137df565b92915050565b600060208284031215613821576138206128ed565b5b600061382f848285016137f6565b91505092915050565b60008060008060808587031215613852576138516128ed565b5b6000613860878288016137f6565b9450506020613871878288016137f6565b935050604061388287828801612d7d565b925050606085013567ffffffffffffffff8111156138a3576138a26128f2565b5b6138af878288016131ac565b91505092959194509250565b600080833560016020038436030381126138d8576138d761375b565b5b80840192508235915067ffffffffffffffff8211156138fa576138f9613760565b5b60208301925060408202360383131561391657613915613765565b5b509250929050565b7f4e487b7100000000000000000000000000000000000000000000000000000000600052603260045260246000fd5b600081519050919050565b600081905092915050565b600061396e8261394d565b6139788185613958565b9350613988818560208601612c1c565b80840191505092915050565b60006139a08284613963565b915081905092915050565b7f4e487b7100000000000000000000000000000000000000000000000000000000600052602160045260246000fd5b60006020820190506139ef6000830184612eed565b92915050565b600081905092915050565b50565b6000613a106000836139f5565b9150613a1b82613a00565b600082019050919050565b6000613a3182613a03565b9150819050919050565b6000604082019050613a506000830185612bf1565b613a5d6020830184612eed565b9392505050565b60008115159050919050565b613a7981613a64565b8114613a8457600080fd5b50565b600081519050613a9681613a70565b92915050565b600060208284031215613ab257613ab16128ed565b5b6000613ac084828501613a87565b91505092915050565b6000606082019050613ade6000830186612bf1565b613aeb6020830185612bf1565b613af86040830184612eed565b949350505050565b600081519050613b0f81612d41565b92915050565b60008060408385031215613b2c57613b2b6128ed565b5b6000613b3a85828601613a87565b9250506020613b4b85828601613b00565b9150509250929050565b60048110613b6657613b656139ab565b5b50565b6000819050613b7782613b55565b919050565b6000613b8782613b69565b9050919050565b613b9781613b7c565b82525050565b6000613ba983856136de565b9350613bb6838584612a5c565b613bbf8361299f565b840190509392505050565b6000608082019050613bdf6000830188612bf1565b613bec6020830187612bf1565b613bf96040830186613b8e565b8181036060830152613c0c818486613b9d565b90509695505050505050565b6000604082019050613c2d60008301856133a2565b8181036020830152613c3f8184613042565b90509392505050565b600060208284031215613c5e57613c5d6128ed565b5b6000613c6c84828501613b00565b91505092915050565b6000604082019050613c8a6000830185612eed565b613c976020830184612eed565b9392505050565b613ca781613341565b8114613cb257600080fd5b50565b600081519050613cc481613c9e565b92915050565b600060208284031215613ce057613cdf6128ed565b5b6000613cee84828501613cb5565b91505092915050565b600060a082019050613d0c6000830188612bf1565b613d196020830187612bf1565b613d266040830186612eed565b613d336060830185612bf1565b613d406080830184612eed565b9695505050505050565b7f4f6e6c792063616c6c61626c65206279206f776e657200000000000000000000600082015250565b6000613d806016836136de565b9150613d8b82613d4a565b602082019050919050565b60006020820190508181036000830152613daf81613d73565b9050919050565b7f43616e6e6f74207472616e7366657220746f2073656c66000000000000000000600082015250565b6000613dec6017836136de565b9150613df782613db6565b602082019050919050565b60006020820190508181036000830152613e1b81613ddf565b9050919050565b6000613e2d82612c00565b613e3781856139f5565b9350613e47818560208601612c1c565b80840191505092915050565b6000613e5f8284613e22565b91508190509291505056fea2646970667358221220d71e06ab4427ae0a4b3133e46a54a6935845f4384f136c74dbe9091edbff91e464736f6c63430008180033",
  "linkReferences": {},
  "deployedLinkReferences": {}
}